{
  "transactions": [
    {
      "hash": "0xc3d4af6c2ad37989b133b011c7d05852d1d6295dedd562533bfee776e76321e2",
      "transactionType": "CREATE",
      "contractName": "BoxV2",
      "contractAddress": "0xc22FE8Ea36C8DC70d8E2bBB93E45B8c966e37f6A",
      "function": null,
      "arguments": null,
      "transaction": {
        "from": "0x476fa83807DF948F1c5a1FC7E76134C1271873cd",
        "gas": "0xaede6",
        "value": "0x0",
        "input": "0x60a060405230608052348015601357600080fd5b5060805161090461003d600039600081816102500152818161027901526103be01526109046000f3fe6080604052600436106100705760003560e01c806354fd4d501161004e57806354fd4d50146100c357806355241077146100d757806389ea642f146100f7578063ad3cb1cc1461011957600080fd5b806320965255146100755780634f1ef2861461009957806352d1902d146100ae575b600080fd5b34801561008157600080fd5b506000545b6040519081526020015b60405180910390f35b6100ac6100a73660046105ea565b61014a565b005b3480156100ba57600080fd5b50610086610160565b3480156100cf57600080fd5b506002610086565b3480156100e357600080fd5b506100ac6100f23660046106c2565b600055565b34801561010357600080fd5b5061010c61017d565b60405161009091906106ff565b34801561012557600080fd5b5061010c604051806040016040528060058152602001640352e302e360dc1b81525081565b610152610245565b61015c82826102ec565b5050565b600061016a6103b3565b506000805160206108af83398151915290565b60606040518060400160405280600e81526020016d7570646174656420737472696e6760901b815250600190816101b491906107ba565b50600180546101c290610732565b80601f01602080910402602001604051908101604052809291908181526020018280546101ee90610732565b801561023b5780601f106102105761010080835404028352916020019161023b565b820191906000526020600020905b81548152906001019060200180831161021e57829003601f168201915b5050505050905090565b306001600160a01b037f00000000000000000000000000000000000000000000000000000000000000001614806102cc57507f00000000000000000000000000000000000000000000000000000000000000006001600160a01b03166102c06000805160206108af833981519152546001600160a01b031690565b6001600160a01b031614155b156102ea5760405163703e46dd60e11b815260040160405180910390fd5b565b816001600160a01b03166352d1902d6040518163ffffffff1660e01b8152600401602060405180830381865afa925050508015610346575060408051601f3d908101601f1916820190925261034391810190610879565b60015b61037357604051634c9c8ce360e01b81526001600160a01b03831660048201526024015b60405180910390fd5b6000805160206108af83398151915281146103a457604051632a87526960e21b81526004810182905260240161036a565b6103ae83836103fc565b505050565b306001600160a01b037f000000000000000000000000000000000000000000000000000000000000000016146102ea5760405163703e46dd60e11b815260040160405180910390fd5b61040582610452565b6040516001600160a01b038316907fbc7cd75a20ee27fd9adebab32041f755214dbc6bffa90cc0225b39da2e5c2d3b90600090a280511561044a576103ae82826104b7565b61015c61052d565b806001600160a01b03163b60000361048857604051634c9c8ce360e01b81526001600160a01b038216600482015260240161036a565b6000805160206108af83398151915280546001600160a01b0319166001600160a01b0392909216919091179055565b6060600080846001600160a01b0316846040516104d49190610892565b600060405180830381855af49150503d806000811461050f576040519150601f19603f3d011682016040523d82523d6000602084013e610514565b606091505b509150915061052485838361054c565b95945050505050565b34156102ea5760405163b398979f60e01b815260040160405180910390fd5b6060826105615761055c826105ab565b6105a4565b815115801561057857506001600160a01b0384163b155b156105a157604051639996b31560e01b81526001600160a01b038516600482015260240161036a565b50805b9392505050565b8051156105bb5780518082602001fd5b60405163d6bda27560e01b815260040160405180910390fd5b634e487b7160e01b600052604160045260246000fd5b600080604083850312156105fd57600080fd5b82356001600160a01b038116811461061457600080fd5b9150602083013567ffffffffffffffff81111561063057600080fd5b8301601f8101851361064157600080fd5b803567ffffffffffffffff81111561065b5761065b6105d4565b604051601f8201601f19908116603f0116810167ffffffffffffffff8111828210171561068a5761068a6105d4565b6040528181528282016020018710156106a257600080fd5b816020840160208301376000602083830101528093505050509250929050565b6000602082840312156106d457600080fd5b5035919050565b60005b838110156106f65781810151838201526020016106de565b50506000910152565b602081526000825180602084015261071e8160408501602087016106db565b601f01601f19169190910160400192915050565b600181811c9082168061074657607f821691505b60208210810361076657634e487b7160e01b600052602260045260246000fd5b50919050565b601f8211156103ae57806000526020600020601f840160051c810160208510156107935750805b601f840160051c820191505b818110156107b3576000815560010161079f565b5050505050565b815167ffffffffffffffff8111156107d4576107d46105d4565b6107e8816107e28454610732565b8461076c565b6020601f82116001811461081c57600083156108045750848201515b600019600385901b1c1916600184901b1784556107b3565b600084815260208120601f198516915b8281101561084c578785015182556020948501946001909201910161082c565b508482101561086a5786840151600019600387901b60f8161c191681555b50505050600190811b01905550565b60006020828403121561088b57600080fd5b5051919050565b600082516108a48184602087016106db565b919091019291505056fe360894a13ba1a3210667c828492db98dca3e2076cc3735a920a3ca505d382bbca26469706673582212207497cfc27dcd48dc09aee26cdf2dca3b8abc4aff327f7c7fb321596d15133e8864736f6c634300081b0033",
        "nonce": "0x2f",
        "chainId": "0xaa36a7"
      },
      "additionalContracts": [],
      "isFixedGasLimit": false
    },
    {
      "hash": "0xfbaf2518693f11d94f9a96b372a99cb80f146d4289e2e5c38075b6594b585c0f",
      "transactionType": "CALL",
      "contractName": null,
      "contractAddress": "0x646Bc5Dc31D6A7f424fa05A929A77Ea2D77D9523",
      "function": "upgradeToAndCall(address,bytes)",
      "arguments": [
        "0xc22FE8Ea36C8DC70d8E2bBB93E45B8c966e37f6A",
        "0x"
      ],
      "transaction": {
        "from": "0x476fa83807DF948F1c5a1FC7E76134C1271873cd",
        "to": "0x646Bc5Dc31D6A7f424fa05A929A77Ea2D77D9523",
        "gas": "0xcaa7",
        "value": "0x0",
        "input": "0x4f1ef286000000000000000000000000c22fe8ea36c8dc70d8e2bbb93e45b8c966e37f6a00000000000000000000000000000000000000000000000000000000000000400000000000000000000000000000000000000000000000000000000000000000",
        "nonce": "0x30",
        "chainId": "0xaa36a7"
      },
      "additionalContracts": [],
      "isFixedGasLimit": false
    }
  ],
  "receipts": [
    {
      "status": "0x1",
      "cumulativeGasUsed": "0xd157f9",
      "logs": [],
      "logsBloom": "0x00000000000000000000000000000000000000000000000000000000000000000000000000000000000000000000000000000000000000000000000000000000000000000000000000000000000000000000000000000000000000000000000000000000000000000000000000000000000000000000000000000000000000000000000000000000000000000000000000000000000000000000000000000000000000000000000000000000000000000000000000000000000000000000000000000000000000000000000000000000000000000000000000000000000000000000000000000000000000000000000000000000000000000000000000000000",
      "type": "0x2",
      "transactionHash": "0xc3d4af6c2ad37989b133b011c7d05852d1d6295dedd562533bfee776e76321e2",
      "transactionIndex": "0x5b",
      "blockHash": "0xaf816756cab37871694fcf7ac7a1fc6bedf36b1bd66643066a88995eb9558295",
      "blockNumber": "0x697639",
      "gasUsed": "0x868d1",
      "effectiveGasPrice": "0x2b6b293f",
      "from": "0x476fa83807DF948F1c5a1FC7E76134C1271873cd",
      "to": null,
      "contractAddress": "0xc22FE8Ea36C8DC70d8E2bBB93E45B8c966e37f6A"
    },
    {
      "status": "0x1",
      "cumulativeGasUsed": "0xd1eab1",
      "logs": [
        {
          "address": "0x646Bc5Dc31D6A7f424fa05A929A77Ea2D77D9523",
          "topics": [
            "0xbc7cd75a20ee27fd9adebab32041f755214dbc6bffa90cc0225b39da2e5c2d3b",
            "0x000000000000000000000000c22fe8ea36c8dc70d8e2bbb93e45b8c966e37f6a"
          ],
          "data": "0x",
          "blockHash": "0xaf816756cab37871694fcf7ac7a1fc6bedf36b1bd66643066a88995eb9558295",
          "blockNumber": "0x697639",
          "transactionHash": "0xfbaf2518693f11d94f9a96b372a99cb80f146d4289e2e5c38075b6594b585c0f",
          "transactionIndex": "0x5c",
          "logIndex": "0x82",
          "removed": false
        }
      ],
      "logsBloom": "0x00000000000000000020000000000000400000000000000000000000000000000000000000000000000000000000000000000000000000000000000000000000000000000000000000000000000002000000000000000000000000000000000000002000000000000000000000000000000000000000000000000000000000000000000000000000000000000000000000000000000000000000000000000000010000000000000000000000000000000000000000000000000000000000000000004024000000000000000000000000000000000000000000000000000000000000008000000000000000000000000000000000000000000000000000000000",
      "type": "0x2",
      "transactionHash": "0xfbaf2518693f11d94f9a96b372a99cb80f146d4289e2e5c38075b6594b585c0f",
      "transactionIndex": "0x5c",
      "blockHash": "0xaf816756cab37871694fcf7ac7a1fc6bedf36b1bd66643066a88995eb9558295",
      "blockNumber": "0x697639",
      "gasUsed": "0x92b8",
      "effectiveGasPrice": "0x2b6b293f",
      "from": "0x476fa83807DF948F1c5a1FC7E76134C1271873cd",
      "to": "0x646Bc5Dc31D6A7f424fa05A929A77Ea2D77D9523",
      "contractAddress": null
    }
  ],
  "libraries": [],
  "pending": [],
  "returns": {
    "0": {
      "internal_type": "address",
      "value": "0x646Bc5Dc31D6A7f424fa05A929A77Ea2D77D9523"
    }
  },
  "timestamp": 1729446581,
  "chain": 11155111,
  "commit": "2b0350e"
}