{
  "transactions": [
    {
      "hash": "0x13499a239e3439e8f80816c4f8c5bf3de74dc793f96b81ece603cfa4f351622b",
      "transactionType": "CREATE",
      "contractName": "BoxV2",
      "contractAddress": "0x48E63E7eF9197Af694e969f34F4862087Af88399",
      "function": null,
      "arguments": null,
      "transaction": {
        "from": "0x26c1497D12b50EfaC76946Dc625937Fd594b8542",
        "gas": "0x87779",
        "value": "0x0",
        "input": "0x60a060405230608052348015601357600080fd5b506080516106c561003d600039600081816101580152818161018101526102c601526106c56000f3fe6080604052600436106100555760003560e01c8063209652551461005a5780634f1ef2861461007e57806352d1902d1461009357806354fd4d50146100a857806355241077146100bc578063ad3cb1cc146100dc575b600080fd5b34801561006657600080fd5b506000545b6040519081526020015b60405180910390f35b61009161008c3660046104f2565b61011a565b005b34801561009f57600080fd5b5061006b610130565b3480156100b457600080fd5b50600261006b565b3480156100c857600080fd5b506100916100d73660046105ca565b600055565b3480156100e857600080fd5b5061010d604051806040016040528060058152602001640352e302e360dc1b81525081565b6040516100759190610607565b61012261014d565b61012c82826101f4565b5050565b600061013a6102bb565b5060008051602061067083398151915290565b306001600160a01b037f00000000000000000000000000000000000000000000000000000000000000001614806101d457507f00000000000000000000000000000000000000000000000000000000000000006001600160a01b03166101c8600080516020610670833981519152546001600160a01b031690565b6001600160a01b031614155b156101f25760405163703e46dd60e11b815260040160405180910390fd5b565b816001600160a01b03166352d1902d6040518163ffffffff1660e01b8152600401602060405180830381865afa92505050801561024e575060408051601f3d908101601f1916820190925261024b9181019061063a565b60015b61027b57604051634c9c8ce360e01b81526001600160a01b03831660048201526024015b60405180910390fd5b60008051602061067083398151915281146102ac57604051632a87526960e21b815260048101829052602401610272565b6102b68383610304565b505050565b306001600160a01b037f000000000000000000000000000000000000000000000000000000000000000016146101f25760405163703e46dd60e11b815260040160405180910390fd5b61030d8261035a565b6040516001600160a01b038316907fbc7cd75a20ee27fd9adebab32041f755214dbc6bffa90cc0225b39da2e5c2d3b90600090a2805115610352576102b682826103bf565b61012c610435565b806001600160a01b03163b60000361039057604051634c9c8ce360e01b81526001600160a01b0382166004820152602401610272565b60008051602061067083398151915280546001600160a01b0319166001600160a01b0392909216919091179055565b6060600080846001600160a01b0316846040516103dc9190610653565b600060405180830381855af49150503d8060008114610417576040519150601f19603f3d011682016040523d82523d6000602084013e61041c565b606091505b509150915061042c858383610454565b95945050505050565b34156101f25760405163b398979f60e01b815260040160405180910390fd5b60608261046957610464826104b3565b6104ac565b815115801561048057506001600160a01b0384163b155b156104a957604051639996b31560e01b81526001600160a01b0385166004820152602401610272565b50805b9392505050565b8051156104c35780518082602001fd5b60405163d6bda27560e01b815260040160405180910390fd5b634e487b7160e01b600052604160045260246000fd5b6000806040838503121561050557600080fd5b82356001600160a01b038116811461051c57600080fd5b9150602083013567ffffffffffffffff81111561053857600080fd5b8301601f8101851361054957600080fd5b803567ffffffffffffffff811115610563576105636104dc565b604051601f8201601f19908116603f0116810167ffffffffffffffff81118282101715610592576105926104dc565b6040528181528282016020018710156105aa57600080fd5b816020840160208301376000602083830101528093505050509250929050565b6000602082840312156105dc57600080fd5b5035919050565b60005b838110156105fe5781810151838201526020016105e6565b50506000910152565b60208152600082518060208401526106268160408501602087016105e3565b601f01601f19169190910160400192915050565b60006020828403121561064c57600080fd5b5051919050565b600082516106658184602087016105e3565b919091019291505056fe360894a13ba1a3210667c828492db98dca3e2076cc3735a920a3ca505d382bbca26469706673582212201b7d61e6de0bd9f63b21e7c46ec4fa1aa9efa60380a0b91b98c384cca49d94cb64736f6c634300081b0033",
        "nonce": "0x2e",
        "chainId": "0xaa36a7"
      },
      "additionalContracts": [],
      "isFixedGasLimit": false
    },
    {
      "hash": "0x9f91f07e41a71d42420da01bf1f903ce32170fd1fa99169c57ff18b6df8b2329",
      "transactionType": "CALL",
      "contractName": null,
      "contractAddress": "0x3f31Ed13a8b3F2B2D89CDb2D57F4f4446C7ec398",
      "function": "upgradeToAndCall(address,bytes)",
      "arguments": [
        "0x48E63E7eF9197Af694e969f34F4862087Af88399",
        "0x"
      ],
      "transaction": {
        "from": "0x26c1497D12b50EfaC76946Dc625937Fd594b8542",
        "to": "0x3f31Ed13a8b3F2B2D89CDb2D57F4f4446C7ec398",
        "gas": "0xc985",
        "value": "0x0",
        "input": "0x4f1ef28600000000000000000000000048e63e7ef9197af694e969f34f4862087af8839900000000000000000000000000000000000000000000000000000000000000400000000000000000000000000000000000000000000000000000000000000000",
        "nonce": "0x2f",
        "chainId": "0xaa36a7"
      },
      "additionalContracts": [],
      "isFixedGasLimit": false
    }
  ],
  "receipts": [
    {
      "status": "0x1",
      "cumulativeGasUsed": "0x9c4f78",
      "logs": [],
      "logsBloom": "0x00000000000000000000000000000000000000000000000000000000000000000000000000000000000000000000000000000000000000000000000000000000000000000000000000000000000000000000000000000000000000000000000000000000000000000000000000000000000000000000000000000000000000000000000000000000000000000000000000000000000000000000000000000000000000000000000000000000000000000000000000000000000000000000000000000000000000000000000000000000000000000000000000000000000000000000000000000000000000000000000000000000000000000000000000000000",
      "type": "0x2",
      "transactionHash": "0x13499a239e3439e8f80816c4f8c5bf3de74dc793f96b81ece603cfa4f351622b",
      "transactionIndex": "0x3c",
      "blockHash": "0x8d41fe6b3807c8039b1bcfd28b0fcd8b971584b0d421b433f7459b5e28929bee",
      "blockNumber": "0x69715c",
      "gasUsed": "0x683bc",
      "effectiveGasPrice": "0xcf745bbf",
      "from": "0x26c1497D12b50EfaC76946Dc625937Fd594b8542",
      "to": null,
      "contractAddress": "0x48E63E7eF9197Af694e969f34F4862087Af88399"
    },
    {
      "status": "0x1",
      "cumulativeGasUsed": "0x9cd943",
      "logs": [
        {
          "address": "0x3f31Ed13a8b3F2B2D89CDb2D57F4f4446C7ec398",
          "topics": [
            "0xbc7cd75a20ee27fd9adebab32041f755214dbc6bffa90cc0225b39da2e5c2d3b",
            "0x00000000000000000000000048e63e7ef9197af694e969f34f4862087af88399"
          ],
          "data": "0x",
          "blockHash": "0x8d41fe6b3807c8039b1bcfd28b0fcd8b971584b0d421b433f7459b5e28929bee",
          "blockNumber": "0x69715c",
          "transactionHash": "0x9f91f07e41a71d42420da01bf1f903ce32170fd1fa99169c57ff18b6df8b2329",
          "transactionIndex": "0x3d",
          "logIndex": "0x51",
          "removed": false
        }
      ],
      "logsBloom": "0x00000000000000000000000000000000400000000000000000000000000000000000000000000000000010000000000000000000000000000200000000000000000000000000000000000000000002000000000000100000000000000000010000000000000000000000000000000000000000000000000000002000000000000000000000000000000000000000000000000000000000000000000000800000000000000000000000000000000000000000000000000000000000000000000000000020000000000000000000000000000000000000000000000000000000000000000000000000000000000000000000000000000000000000000000000000",
      "type": "0x2",
      "transactionHash": "0x9f91f07e41a71d42420da01bf1f903ce32170fd1fa99169c57ff18b6df8b2329",
      "transactionIndex": "0x3d",
      "blockHash": "0x8d41fe6b3807c8039b1bcfd28b0fcd8b971584b0d421b433f7459b5e28929bee",
      "blockNumber": "0x69715c",
      "gasUsed": "0x89cb",
      "effectiveGasPrice": "0xcf745bbf",
      "from": "0x26c1497D12b50EfaC76946Dc625937Fd594b8542",
      "to": "0x3f31Ed13a8b3F2B2D89CDb2D57F4f4446C7ec398",
      "contractAddress": null
    }
  ],
  "libraries": [],
  "pending": [],
  "returns": {
    "0": {
      "internal_type": "address",
      "value": "0x3f31Ed13a8b3F2B2D89CDb2D57F4f4446C7ec398"
    }
  },
  "timestamp": 1729428459,
  "chain": 11155111,
  "commit": "fdaa2c7"
}